{
  "contractName": "MultiSigWallet",
  "abi": [
    {
      "constant": true,
      "inputs": [
        {
          "name": "",
          "type": "uint256"
        }
      ],
      "name": "owners",
      "outputs": [
        {
          "name": "",
          "type": "address"
        }
      ],
      "payable": false,
      "type": "function",
      "signature": "0x025e7c27"
    },
    {
      "constant": true,
      "inputs": [
        {
          "name": "",
          "type": "address"
        }
      ],
      "name": "isOwner",
      "outputs": [
        {
          "name": "",
          "type": "bool"
        }
      ],
      "payable": false,
      "type": "function",
      "signature": "0x2f54bf6e"
    },
    {
      "constant": true,
      "inputs": [
        {
          "name": "",
          "type": "uint256"
        },
        {
          "name": "",
          "type": "address"
        }
      ],
      "name": "confirmations",
      "outputs": [
        {
          "name": "",
          "type": "bool"
        }
      ],
      "payable": false,
      "type": "function",
      "signature": "0x3411c81c"
    },
    {
      "constant": true,
      "inputs": [
        {
          "name": "",
          "type": "uint256"
        }
      ],
      "name": "transactions",
      "outputs": [
        {
          "name": "destination",
          "type": "address"
        },
        {
          "name": "value",
          "type": "uint256"
        },
        {
          "name": "data",
          "type": "bytes"
        },
        {
          "name": "executed",
          "type": "bool"
        }
      ],
      "payable": false,
      "type": "function",
      "signature": "0x9ace38c2"
    },
    {
      "constant": true,
      "inputs": [],
      "name": "transactionCount",
      "outputs": [
        {
          "name": "",
          "type": "uint256"
        }
      ],
      "payable": false,
      "type": "function",
      "signature": "0xb77bf600"
    },
    {
      "constant": true,
      "inputs": [],
      "name": "MAX_OWNER_COUNT",
      "outputs": [
        {
          "name": "",
          "type": "uint256"
        }
      ],
      "payable": false,
      "type": "function",
      "signature": "0xd74f8edd"
    },
    {
      "constant": true,
      "inputs": [],
      "name": "required",
      "outputs": [
        {
          "name": "",
          "type": "uint256"
        }
      ],
      "payable": false,
      "type": "function",
      "signature": "0xdc8452cd"
    },
    {
      "inputs": [
        {
          "name": "_owners",
          "type": "address[]"
        },
        {
          "name": "_required",
          "type": "uint256"
        }
      ],
      "payable": false,
      "type": "constructor",
      "signature": "constructor"
    },
    {
      "payable": true,
      "type": "fallback"
    },
    {
      "anonymous": false,
      "inputs": [
        {
          "indexed": true,
          "name": "sender",
          "type": "address"
        },
        {
          "indexed": true,
          "name": "transactionId",
          "type": "uint256"
        }
      ],
      "name": "Confirmation",
      "type": "event",
      "signature": "0x4a504a94899432a9846e1aa406dceb1bcfd538bb839071d49d1e5e23f5be30ef"
    },
    {
      "anonymous": false,
      "inputs": [
        {
          "indexed": true,
          "name": "sender",
          "type": "address"
        },
        {
          "indexed": true,
          "name": "transactionId",
          "type": "uint256"
        }
      ],
      "name": "Revocation",
      "type": "event",
      "signature": "0xf6a317157440607f36269043eb55f1287a5a19ba2216afeab88cd46cbcfb88e9"
    },
    {
      "anonymous": false,
      "inputs": [
        {
          "indexed": true,
          "name": "transactionId",
          "type": "uint256"
        }
      ],
      "name": "Submission",
      "type": "event",
      "signature": "0xc0ba8fe4b176c1714197d43b9cc6bcf797a4a7461c5fe8d0ef6e184ae7601e51"
    },
    {
      "anonymous": false,
      "inputs": [
        {
          "indexed": true,
          "name": "transactionId",
          "type": "uint256"
        }
      ],
      "name": "Execution",
      "type": "event",
      "signature": "0x33e13ecb54c3076d8e8bb8c2881800a4d972b792045ffae98fdf46df365fed75"
    },
    {
      "anonymous": false,
      "inputs": [
        {
          "indexed": true,
          "name": "transactionId",
          "type": "uint256"
        }
      ],
      "name": "ExecutionFailure",
      "type": "event",
      "signature": "0x526441bb6c1aba3c9a4a6ca1d6545da9c2333c8c48343ef398eb858d72b79236"
    },
    {
      "anonymous": false,
      "inputs": [
        {
          "indexed": true,
          "name": "sender",
          "type": "address"
        },
        {
          "indexed": false,
          "name": "value",
          "type": "uint256"
        }
      ],
      "name": "Deposit",
      "type": "event",
      "signature": "0xe1fffcc4923d04b559f4d29a8bfc6cda04eb5b0d3c460751c2402c5c5cc9109c"
    },
    {
      "anonymous": false,
      "inputs": [
        {
          "indexed": true,
          "name": "owner",
          "type": "address"
        }
      ],
      "name": "OwnerAddition",
      "type": "event",
      "signature": "0xf39e6e1eb0edcf53c221607b54b00cd28f3196fed0a24994dc308b8f611b682d"
    },
    {
      "anonymous": false,
      "inputs": [
        {
          "indexed": true,
          "name": "owner",
          "type": "address"
        }
      ],
      "name": "OwnerRemoval",
      "type": "event",
      "signature": "0x8001553a916ef2f495d26a907cc54d96ed840d7bda71e73194bf5a9df7a76b90"
    },
    {
      "anonymous": false,
      "inputs": [
        {
          "indexed": false,
          "name": "required",
          "type": "uint256"
        }
      ],
      "name": "RequirementChange",
      "type": "event",
      "signature": "0xa3f1ee9126a074d9326c682f561767f710e927faa811f7a99829d49dc421797a"
    },
    {
      "constant": false,
      "inputs": [
        {
          "name": "owner",
          "type": "address"
        }
      ],
      "name": "addOwner",
      "outputs": [],
      "payable": false,
      "type": "function",
      "signature": "0x7065cb48"
    },
    {
      "constant": false,
      "inputs": [
        {
          "name": "owner",
          "type": "address"
        }
      ],
      "name": "removeOwner",
      "outputs": [],
      "payable": false,
      "type": "function",
      "signature": "0x173825d9"
    },
    {
      "constant": false,
      "inputs": [
        {
          "name": "owner",
          "type": "address"
        },
        {
          "name": "newOwner",
          "type": "address"
        }
      ],
      "name": "replaceOwner",
      "outputs": [],
      "payable": false,
      "type": "function",
      "signature": "0xe20056e6"
    },
    {
      "constant": false,
      "inputs": [
        {
          "name": "_required",
          "type": "uint256"
        }
      ],
      "name": "changeRequirement",
      "outputs": [],
      "payable": false,
      "type": "function",
      "signature": "0xba51a6df"
    },
    {
      "constant": false,
      "inputs": [
        {
          "name": "destination",
          "type": "address"
        },
        {
          "name": "value",
          "type": "uint256"
        },
        {
          "name": "data",
          "type": "bytes"
        }
      ],
      "name": "submitTransaction",
      "outputs": [
        {
          "name": "transactionId",
          "type": "uint256"
        }
      ],
      "payable": false,
      "type": "function",
      "signature": "0xc6427474"
    },
    {
      "constant": false,
      "inputs": [
        {
          "name": "transactionId",
          "type": "uint256"
        }
      ],
      "name": "confirmTransaction",
      "outputs": [],
      "payable": false,
      "type": "function",
      "signature": "0xc01a8c84"
    },
    {
      "constant": false,
      "inputs": [
        {
          "name": "transactionId",
          "type": "uint256"
        }
      ],
      "name": "revokeConfirmation",
      "outputs": [],
      "payable": false,
      "type": "function",
      "signature": "0x20ea8d86"
    },
    {
      "constant": false,
      "inputs": [
        {
          "name": "transactionId",
          "type": "uint256"
        }
      ],
      "name": "executeTransaction",
      "outputs": [],
      "payable": false,
      "type": "function",
      "signature": "0xee22610b"
    },
    {
      "constant": true,
      "inputs": [
        {
          "name": "transactionId",
          "type": "uint256"
        }
      ],
      "name": "isConfirmed",
      "outputs": [
        {
          "name": "",
          "type": "bool"
        }
      ],
      "payable": false,
      "type": "function",
      "signature": "0x784547a7"
    },
    {
      "constant": true,
      "inputs": [
        {
          "name": "transactionId",
          "type": "uint256"
        }
      ],
      "name": "getConfirmationCount",
      "outputs": [
        {
          "name": "count",
          "type": "uint256"
        }
      ],
      "payable": false,
      "type": "function",
      "signature": "0x8b51d13f"
    },
    {
      "constant": true,
      "inputs": [
        {
          "name": "pending",
          "type": "bool"
        },
        {
          "name": "executed",
          "type": "bool"
        }
      ],
      "name": "getTransactionCount",
      "outputs": [
        {
          "name": "count",
          "type": "uint256"
        }
      ],
      "payable": false,
      "type": "function",
      "signature": "0x54741525"
    },
    {
      "constant": true,
      "inputs": [],
      "name": "getOwners",
      "outputs": [
        {
          "name": "",
          "type": "address[]"
        }
      ],
      "payable": false,
      "type": "function",
      "signature": "0xa0e67e2b"
    },
    {
      "constant": true,
      "inputs": [
        {
          "name": "transactionId",
          "type": "uint256"
        }
      ],
      "name": "getConfirmations",
      "outputs": [
        {
          "name": "_confirmations",
          "type": "address[]"
        }
      ],
      "payable": false,
      "type": "function",
      "signature": "0xb5dc40c3"
    },
    {
      "constant": true,
      "inputs": [
        {
          "name": "from",
          "type": "uint256"
        },
        {
          "name": "to",
          "type": "uint256"
        },
        {
          "name": "pending",
          "type": "bool"
        },
        {
          "name": "executed",
          "type": "bool"
        }
      ],
      "name": "getTransactionIds",
      "outputs": [
        {
          "name": "_transactionIds",
          "type": "uint256[]"
        }
      ],
      "payable": false,
      "type": "function",
      "signature": "0xa8abe69a"
    }
  ],
  "bytecode": "0x606060405234156200001057600080fd5b6040516200240138038062002401833981016040528080518201919060200180519060200190919050505b600082518260328211158015620000525750818111155b801562000060575060008114155b80156200006e575060008214155b15156200007a57600080fd5b600092505b8451831015620001b6576002600086858151811015156200009c57fe5b9060200190602002015173ffffffffffffffffffffffffffffffffffffffff1673ffffffffffffffffffffffffffffffffffffffff16815260200190815260200160002060009054906101000a900460ff161580156200012b5750600085848151811015156200010857fe5b9060200190602002015173ffffffffffffffffffffffffffffffffffffffff1614155b15156200013757600080fd5b60016002600087868151811015156200014c57fe5b9060200190602002015173ffffffffffffffffffffffffffffffffffffffff1673ffffffffffffffffffffffffffffffffffffffff16815260200190815260200160002060006101000a81548160ff0219169083151502179055505b82806001019350506200007f565b8460039080519060200190620001ce929190620001e3565b50836004819055505b5b5050505050620002b8565b8280548282559060005260206000209081019282156200025f579160200282015b828111156200025e5782518260006101000a81548173ffffffffffffffffffffffffffffffffffffffff021916908373ffffffffffffffffffffffffffffffffffffffff1602179055509160200191906001019062000204565b5b5090506200026e919062000272565b5090565b620002b591905b80821115620002b157600081816101000a81549073ffffffffffffffffffffffffffffffffffffffff02191690555060010162000279565b5090565b90565b61213980620002c86000396000f3006060604052361561011b576000357c0100000000000000000000000000000000000000000000000000000000900463ffffffff168063025e7c2714610177578063173825d9146101da57806320ea8d86146102135780632f54bf6e146102365780633411c81c1461028757806354741525146102e15780637065cb4814610325578063784547a71461035e5780638b51d13f146103995780639ace38c2146103d0578063a0e67e2b146104ce578063a8abe69a14610539578063b5dc40c3146105d1578063b77bf6001461064a578063ba51a6df14610673578063c01a8c8414610696578063c6427474146106b9578063d74f8edd14610752578063dc8452cd1461077b578063e20056e6146107a4578063ee22610b146107fc575b5b6000341115610174573373ffffffffffffffffffffffffffffffffffffffff167fe1fffcc4923d04b559f4d29a8bfc6cda04eb5b0d3c460751c2402c5c5cc9109c346040518082815260200191505060405180910390a25b5b005b341561018257600080fd5b610198600480803590602001909190505061081f565b604051808273ffffffffffffffffffffffffffffffffffffffff1673ffffffffffffffffffffffffffffffffffffffff16815260200191505060405180910390f35b34156101e557600080fd5b610211600480803573ffffffffffffffffffffffffffffffffffffffff1690602001909190505061085f565b005b341561021e57600080fd5b6102346004808035906020019091905050610b02565b005b341561024157600080fd5b61026d600480803573ffffffffffffffffffffffffffffffffffffffff16906020019091905050610cae565b604051808215151515815260200191505060405180910390f35b341561029257600080fd5b6102c7600480803590602001909190803573ffffffffffffffffffffffffffffffffffffffff16906020019091905050610cce565b604051808215151515815260200191505060405180910390f35b34156102ec57600080fd5b61030f600480803515159060200190919080351515906020019091905050610cfd565b6040518082815260200191505060405180910390f35b341561033057600080fd5b61035c600480803573ffffffffffffffffffffffffffffffffffffffff16906020019091905050610d91565b005b341561036957600080fd5b61037f6004808035906020019091905050610f99565b604051808215151515815260200191505060405180910390f35b34156103a457600080fd5b6103ba6004808035906020019091905050611081565b6040518082815260200191505060405180910390f35b34156103db57600080fd5b6103f16004808035906020019091905050611150565b604051808573ffffffffffffffffffffffffffffffffffffffff1673ffffffffffffffffffffffffffffffffffffffff16815260200184815260200180602001831515151581526020018281038252848181546001816001161561010002031660029004815260200191508054600181600116156101000203166002900480156104bc5780601f10610491576101008083540402835291602001916104bc565b820191906000526020600020905b81548152906001019060200180831161049f57829003601f168201915b50509550505050505060405180910390f35b34156104d957600080fd5b6104e16111ac565b6040518080602001828103825283818151815260200191508051906020019060200280838360005b838110156105255780820151818401525b602081019050610509565b505050509050019250505060405180910390f35b341561054457600080fd5b610579600480803590602001909190803590602001909190803515159060200190919080351515906020019091905050611241565b6040518080602001828103825283818151815260200191508051906020019060200280838360005b838110156105bd5780820151818401525b6020810190506105a1565b505050509050019250505060405180910390f35b34156105dc57600080fd5b6105f260048080359060200190919050506113a2565b6040518080602001828103825283818151815260200191508051906020019060200280838360005b838110156106365780820151818401525b60208101905061061a565b505050509050019250505060405180910390f35b341561065557600080fd5b61065d6115d3565b6040518082815260200191505060405180910390f35b341561067e57600080fd5b61069460048080359060200190919050506115d9565b005b34156106a157600080fd5b6106b76004808035906020019091905050611696565b005b34156106c457600080fd5b61073c600480803573ffffffffffffffffffffffffffffffffffffffff1690602001909190803590602001909190803590602001908201803590602001908080601f01602080910402602001604051908101604052809392919081815260200183838082843782019150505050505091905050611877565b6040518082815260200191505060405180910390f35b341561075d57600080fd5b610765611897565b6040518082815260200191505060405180910390f35b341561078657600080fd5b61078e61189c565b6040518082815260200191505060405180910390f35b34156107af57600080fd5b6107fa600480803573ffffffffffffffffffffffffffffffffffffffff1690602001909190803573ffffffffffffffffffffffffffffffffffffffff169060200190919050506118a2565b005b341561080757600080fd5b61081d6004808035906020019091905050611bc0565b005b60038181548110151561082e57fe5b906000526020600020900160005b915054906101000a900473ffffffffffffffffffffffffffffffffffffffff1681565b60003073ffffffffffffffffffffffffffffffffffffffff163373ffffffffffffffffffffffffffffffffffffffff1614151561089b57600080fd5b81600260008273ffffffffffffffffffffffffffffffffffffffff1673ffffffffffffffffffffffffffffffffffffffff16815260200190815260200160002060009054906101000a900460ff1615156108f457600080fd5b6000600260008573ffffffffffffffffffffffffffffffffffffffff1673ffffffffffffffffffffffffffffffffffffffff16815260200190815260200160002060006101000a81548160ff021916908315150217905550600091505b600160038054905003821015610a80578273ffffffffffffffffffffffffffffffffffffffff1660038381548110151561098757fe5b906000526020600020900160005b9054906101000a900473ffffffffffffffffffffffffffffffffffffffff1673ffffffffffffffffffffffffffffffffffffffff161415610a725760036001600380549050038154811015156109e757fe5b906000526020600020900160005b9054906101000a900473ffffffffffffffffffffffffffffffffffffffff16600383815481101515610a2357fe5b906000526020600020900160005b6101000a81548173ffffffffffffffffffffffffffffffffffffffff021916908373ffffffffffffffffffffffffffffffffffffffff160217905550610a80565b5b8180600101925050610951565b6001600381818054905003915081610a989190611fe8565b506003805490506004541115610ab757610ab66003805490506115d9565b5b8273ffffffffffffffffffffffffffffffffffffffff167f8001553a916ef2f495d26a907cc54d96ed840d7bda71e73194bf5a9df7a76b9060405160405180910390a25b5b505b5050565b33600260008273ffffffffffffffffffffffffffffffffffffffff1673ffffffffffffffffffffffffffffffffffffffff16815260200190815260200160002060009054906101000a900460ff161515610b5b57600080fd5b81336001600083815260200190815260200160002060008273ffffffffffffffffffffffffffffffffffffffff1673ffffffffffffffffffffffffffffffffffffffff16815260200190815260200160002060009054906101000a900460ff161515610bc657600080fd5b8360008082815260200190815260200160002060030160009054906101000a900460ff16151515610bf657600080fd5b60006001600087815260200190815260200160002060003373ffffffffffffffffffffffffffffffffffffffff1673ffffffffffffffffffffffffffffffffffffffff16815260200190815260200160002060006101000a81548160ff021916908315150217905550843373ffffffffffffffffffffffffffffffffffffffff167ff6a317157440607f36269043eb55f1287a5a19ba2216afeab88cd46cbcfb88e960405160405180910390a35b5b505b50505b5050565b60026020528060005260406000206000915054906101000a900460ff1681565b60016020528160005260406000206020528060005260406000206000915091509054906101000a900460ff1681565b600080600090505b600554811015610d8957838015610d3c575060008082815260200190815260200160002060030160009054906101000a900460ff16155b80610d6f5750828015610d6e575060008082815260200190815260200160002060030160009054906101000a900460ff165b5b15610d7b576001820191505b5b8080600101915050610d05565b5b5092915050565b3073ffffffffffffffffffffffffffffffffffffffff163373ffffffffffffffffffffffffffffffffffffffff16141515610dcb57600080fd5b80600260008273ffffffffffffffffffffffffffffffffffffffff1673ffffffffffffffffffffffffffffffffffffffff16815260200190815260200160002060009054906101000a900460ff16151515610e2557600080fd5b8160008173ffffffffffffffffffffffffffffffffffffffff1614151515610e4c57600080fd5b60016003805490500160045460328211158015610e695750818111155b8015610e76575060008114155b8015610e83575060008214155b1515610e8e57600080fd5b6001600260008773ffffffffffffffffffffffffffffffffffffffff1673ffffffffffffffffffffffffffffffffffffffff16815260200190815260200160002060006101000a81548160ff02191690831515021790555060038054806001018281610efa9190612014565b916000526020600020900160005b87909190916101000a81548173ffffffffffffffffffffffffffffffffffffffff021916908373ffffffffffffffffffffffffffffffffffffffff160217905550508473ffffffffffffffffffffffffffffffffffffffff167ff39e6e1eb0edcf53c221607b54b00cd28f3196fed0a24994dc308b8f611b682d60405160405180910390a25b5b50505b505b505b50565b6000806000809150600090505b60038054905081101561107957600160008581526020019081526020016000206000600383815481101515610fd757fe5b906000526020600020900160005b9054906101000a900473ffffffffffffffffffffffffffffffffffffffff1673ffffffffffffffffffffffffffffffffffffffff1673ffffffffffffffffffffffffffffffffffffffff16815260200190815260200160002060009054906101000a900460ff1615611058576001820191505b60045482141561106b576001925061107a565b5b8080600101915050610fa6565b5b5050919050565b600080600090505b600380549050811015611149576001600084815260200190815260200160002060006003838154811015156110ba57fe5b906000526020600020900160005b9054906101000a900473ffffffffffffffffffffffffffffffffffffffff1673ffffffffffffffffffffffffffffffffffffffff1673ffffffffffffffffffffffffffffffffffffffff16815260200190815260200160002060009054906101000a900460ff161561113b576001820191505b5b8080600101915050611089565b5b50919050565b60006020528060005260406000206000915090508060000160009054906101000a900473ffffffffffffffffffffffffffffffffffffffff169080600101549080600201908060030160009054906101000a900460ff16905084565b6111b4612040565b600380548060200260200160405190810160405280929190818152602001828054801561123657602002820191906000526020600020905b8160009054906101000a900473ffffffffffffffffffffffffffffffffffffffff1673ffffffffffffffffffffffffffffffffffffffff16815260200190600101908083116111ec575b505050505090505b90565b611249612054565b611251612054565b6000806005546040518059106112645750595b908082528060200260200182016040525b50925060009150600090505b600554811015611322578580156112b8575060008082815260200190815260200160002060030160009054906101000a900460ff16155b806112eb57508480156112ea575060008082815260200190815260200160002060030160009054906101000a900460ff165b5b15611314578083838151811015156112ff57fe5b90602001906020020181815250506001820191505b5b8080600101915050611281565b8787036040518059106113325750595b908082528060200260200182016040525b5093508790505b8681101561139657828181518110151561136057fe5b906020019060200201518489830381518110151561137a57fe5b90602001906020020181815250505b808060010191505061134a565b5b505050949350505050565b6113aa612040565b6113b2612040565b6000806003805490506040518059106113c85750595b908082528060200260200182016040525b50925060009150600090505b60038054905081101561152b5760016000868152602001908152602001600020600060038381548110151561141657fe5b906000526020600020900160005b9054906101000a900473ffffffffffffffffffffffffffffffffffffffff1673ffffffffffffffffffffffffffffffffffffffff1673ffffffffffffffffffffffffffffffffffffffff16815260200190815260200160002060009054906101000a900460ff161561151d5760038181548110151561149f57fe5b906000526020600020900160005b9054906101000a900473ffffffffffffffffffffffffffffffffffffffff1683838151811015156114da57fe5b9060200190602002019073ffffffffffffffffffffffffffffffffffffffff16908173ffffffffffffffffffffffffffffffffffffffff16815250506001820191505b5b80806001019150506113e5565b816040518059106115395750595b908082528060200260200182016040525b509350600090505b818110156115ca57828181518110151561156857fe5b90602001906020020151848281518110151561158057fe5b9060200190602002019073ffffffffffffffffffffffffffffffffffffffff16908173ffffffffffffffffffffffffffffffffffffffff16815250505b8080600101915050611552565b5b505050919050565b60055481565b3073ffffffffffffffffffffffffffffffffffffffff163373ffffffffffffffffffffffffffffffffffffffff1614151561161357600080fd5b600380549050816032821115801561162b5750818111155b8015611638575060008114155b8015611645575060008214155b151561165057600080fd5b826004819055507fa3f1ee9126a074d9326c682f561767f710e927faa811f7a99829d49dc421797a836040518082815260200191505060405180910390a15b5b50505b50565b33600260008273ffffffffffffffffffffffffffffffffffffffff1673ffffffffffffffffffffffffffffffffffffffff16815260200190815260200160002060009054906101000a900460ff1615156116ef57600080fd5b81600080600083815260200190815260200160002060000160009054906101000a900473ffffffffffffffffffffffffffffffffffffffff1673ffffffffffffffffffffffffffffffffffffffff161415151561174b57600080fd5b82336001600083815260200190815260200160002060008273ffffffffffffffffffffffffffffffffffffffff1673ffffffffffffffffffffffffffffffffffffffff16815260200190815260200160002060009054906101000a900460ff161515156117b757600080fd5b600180600087815260200190815260200160002060003373ffffffffffffffffffffffffffffffffffffffff1673ffffffffffffffffffffffffffffffffffffffff16815260200190815260200160002060006101000a81548160ff021916908315150217905550843373ffffffffffffffffffffffffffffffffffffffff167f4a504a94899432a9846e1aa406dceb1bcfd538bb839071d49d1e5e23f5be30ef60405160405180910390a361186c85611bc0565b5b5b50505b505b5050565b6000611884848484611e6c565b905061188f81611696565b5b9392505050565b603281565b60045481565b60003073ffffffffffffffffffffffffffffffffffffffff163373ffffffffffffffffffffffffffffffffffffffff161415156118de57600080fd5b82600260008273ffffffffffffffffffffffffffffffffffffffff1673ffffffffffffffffffffffffffffffffffffffff16815260200190815260200160002060009054906101000a900460ff16151561193757600080fd5b82600260008273ffffffffffffffffffffffffffffffffffffffff1673ffffffffffffffffffffffffffffffffffffffff16815260200190815260200160002060009054906101000a900460ff1615151561199157600080fd5b600092505b600380549050831015611a7f578473ffffffffffffffffffffffffffffffffffffffff166003848154811015156119c957fe5b906000526020600020900160005b9054906101000a900473ffffffffffffffffffffffffffffffffffffffff1673ffffffffffffffffffffffffffffffffffffffff161415611a715783600384815481101515611a2257fe5b906000526020600020900160005b6101000a81548173ffffffffffffffffffffffffffffffffffffffff021916908373ffffffffffffffffffffffffffffffffffffffff160217905550611a7f565b5b8280600101935050611996565b6000600260008773ffffffffffffffffffffffffffffffffffffffff1673ffffffffffffffffffffffffffffffffffffffff16815260200190815260200160002060006101000a81548160ff0219169083151502179055506001600260008673ffffffffffffffffffffffffffffffffffffffff1673ffffffffffffffffffffffffffffffffffffffff16815260200190815260200160002060006101000a81548160ff0219169083151502179055508473ffffffffffffffffffffffffffffffffffffffff167f8001553a916ef2f495d26a907cc54d96ed840d7bda71e73194bf5a9df7a76b9060405160405180910390a28373ffffffffffffffffffffffffffffffffffffffff167ff39e6e1eb0edcf53c221607b54b00cd28f3196fed0a24994dc308b8f611b682d60405160405180910390a25b5b505b505b505050565b600033600260008273ffffffffffffffffffffffffffffffffffffffff1673ffffffffffffffffffffffffffffffffffffffff16815260200190815260200160002060009054906101000a900460ff161515611c1b57600080fd5b82336001600083815260200190815260200160002060008273ffffffffffffffffffffffffffffffffffffffff1673ffffffffffffffffffffffffffffffffffffffff16815260200190815260200160002060009054906101000a900460ff161515611c8657600080fd5b8460008082815260200190815260200160002060030160009054906101000a900460ff16151515611cb657600080fd5b611cbf86610f99565b15611e6057600080878152602001908152602001600020945060018560030160006101000a81548160ff021916908315150217905550611ddd8560000160009054906101000a900473ffffffffffffffffffffffffffffffffffffffff16866001015487600201805460018160011615610100020316600290049050886002018054600181600116156101000203166002900480601f016020809104026020016040519081016040528092919081815260200182805460018160011615610100020316600290048015611dd35780601f10611da857610100808354040283529160200191611dd3565b820191906000526020600020905b815481529060010190602001808311611db657829003601f168201915b5050505050611fc0565b15611e1457857f33e13ecb54c3076d8e8bb8c2881800a4d972b792045ffae98fdf46df365fed7560405160405180910390a2611e5f565b857f526441bb6c1aba3c9a4a6ca1d6545da9c2333c8c48343ef398eb858d72b7923660405160405180910390a260008560030160006101000a81548160ff0219169083151502179055505b5b5b5b505b50505b505050565b60008360008173ffffffffffffffffffffffffffffffffffffffff1614151515611e9557600080fd5b60055491506080604051908101604052808673ffffffffffffffffffffffffffffffffffffffff1681526020018581526020018481526020016000151581525060008084815260200190815260200160002060008201518160000160006101000a81548173ffffffffffffffffffffffffffffffffffffffff021916908373ffffffffffffffffffffffffffffffffffffffff160217905550602082015181600101556040820151816002019080519060200190611f54929190612068565b5060608201518160030160006101000a81548160ff0219169083151502179055509050506001600560008282540192505081905550817fc0ba8fe4b176c1714197d43b9cc6bcf797a4a7461c5fe8d0ef6e184ae7601e5160405160405180910390a25b5b509392505050565b6000806040516020840160008287838a8c6187965a03f1925050508091505b50949350505050565b81548183558181151161200f5781836000526020600020918201910161200e91906120e8565b5b505050565b81548183558181151161203b5781836000526020600020918201910161203a91906120e8565b5b505050565b602060405190810160405280600081525090565b602060405190810160405280600081525090565b828054600181600116156101000203166002900490600052602060002090601f016020900481019282601f106120a957805160ff19168380011785556120d7565b828001600101855582156120d7579182015b828111156120d65782518255916020019190600101906120bb565b5b5090506120e491906120e8565b5090565b61210a91905b808211156121065760008160009055506001016120ee565b5090565b905600a165627a7a72305820ce7be760523dce922f6c4aa723a8560ebbc676354161f8f9e65685b481c26c2a0029",
  "source": "pragma solidity ^0.4.15;\n\n\n/// @title Multisignature wallet - Allows multiple parties to agree on transactions before execution.\n/// @author Stefan George - <stefan.george@consensys.net>\ncontract MultiSigWallet {\n\n    /*\n     *  Events\n     */\n    event Confirmation(address indexed sender, uint indexed transactionId);\n    event Revocation(address indexed sender, uint indexed transactionId);\n    event Submission(uint indexed transactionId);\n    event Execution(uint indexed transactionId);\n    event ExecutionFailure(uint indexed transactionId);\n    event Deposit(address indexed sender, uint value);\n    event OwnerAddition(address indexed owner);\n    event OwnerRemoval(address indexed owner);\n    event RequirementChange(uint required);\n\n    /*\n     *  Constants\n     */\n    uint constant public MAX_OWNER_COUNT = 50;\n\n    /*\n     *  Storage\n     */\n    mapping (uint => Transaction) public transactions;\n    mapping (uint => mapping (address => bool)) public confirmations;\n    mapping (address => bool) public isOwner;\n    address[] public owners;\n    uint public required;\n    uint public transactionCount;\n\n    struct Transaction {\n        address destination;\n        uint value;\n        bytes data;\n        bool executed;\n    }\n\n    /*\n     *  Modifiers\n     */\n    modifier onlyWallet() {\n        require(msg.sender == address(this));\n        _;\n    }\n\n    modifier ownerDoesNotExist(address owner) {\n        require(!isOwner[owner]);\n        _;\n    }\n\n    modifier ownerExists(address owner) {\n        require(isOwner[owner]);\n        _;\n    }\n\n    modifier transactionExists(uint transactionId) {\n        require(transactions[transactionId].destination != 0);\n        _;\n    }\n\n    modifier confirmed(uint transactionId, address owner) {\n        require(confirmations[transactionId][owner]);\n        _;\n    }\n\n    modifier notConfirmed(uint transactionId, address owner) {\n        require(!confirmations[transactionId][owner]);\n        _;\n    }\n\n    modifier notExecuted(uint transactionId) {\n        require(!transactions[transactionId].executed);\n        _;\n    }\n\n    modifier notNull(address _address) {\n        require(_address != 0);\n        _;\n    }\n\n    modifier validRequirement(uint ownerCount, uint _required) {\n        require(ownerCount <= MAX_OWNER_COUNT\n            && _required <= ownerCount\n            && _required != 0\n            && ownerCount != 0);\n        _;\n    }\n\n    /// @dev Fallback function allows to deposit ether.\n    function()\n        payable\n    {\n        if (msg.value > 0)\n            Deposit(msg.sender, msg.value);\n    }\n\n    /*\n     * Public functions\n     */\n    /// @dev Contract constructor sets initial owners and required number of confirmations.\n    /// @param _owners List of initial owners.\n    /// @param _required Number of required confirmations.\n    function MultiSigWallet(address[] _owners, uint _required)\n        public\n        validRequirement(_owners.length, _required)\n    {\n        for (uint i=0; i<_owners.length; i++) {\n            require(!isOwner[_owners[i]] && _owners[i] != 0);\n            isOwner[_owners[i]] = true;\n        }\n        owners = _owners;\n        required = _required;\n    }\n\n    /// @dev Allows to add a new owner. Transaction has to be sent by wallet.\n    /// @param owner Address of new owner.\n    function addOwner(address owner)\n        public\n        onlyWallet\n        ownerDoesNotExist(owner)\n        notNull(owner)\n        validRequirement(owners.length + 1, required)\n    {\n        isOwner[owner] = true;\n        owners.push(owner);\n        OwnerAddition(owner);\n    }\n\n    /// @dev Allows to remove an owner. Transaction has to be sent by wallet.\n    /// @param owner Address of owner.\n    function removeOwner(address owner)\n        public\n        onlyWallet\n        ownerExists(owner)\n    {\n        isOwner[owner] = false;\n        for (uint i=0; i<owners.length - 1; i++)\n            if (owners[i] == owner) {\n                owners[i] = owners[owners.length - 1];\n                break;\n            }\n        owners.length -= 1;\n        if (required > owners.length)\n            changeRequirement(owners.length);\n        OwnerRemoval(owner);\n    }\n\n    /// @dev Allows to replace an owner with a new owner. Transaction has to be sent by wallet.\n    /// @param owner Address of owner to be replaced.\n    /// @param newOwner Address of new owner.\n    function replaceOwner(address owner, address newOwner)\n        public\n        onlyWallet\n        ownerExists(owner)\n        ownerDoesNotExist(newOwner)\n    {\n        for (uint i=0; i<owners.length; i++)\n            if (owners[i] == owner) {\n                owners[i] = newOwner;\n                break;\n            }\n        isOwner[owner] = false;\n        isOwner[newOwner] = true;\n        OwnerRemoval(owner);\n        OwnerAddition(newOwner);\n    }\n\n    /// @dev Allows to change the number of required confirmations. Transaction has to be sent by wallet.\n    /// @param _required Number of required confirmations.\n    function changeRequirement(uint _required)\n        public\n        onlyWallet\n        validRequirement(owners.length, _required)\n    {\n        required = _required;\n        RequirementChange(_required);\n    }\n\n    /// @dev Allows an owner to submit and confirm a transaction.\n    /// @param destination Transaction target address.\n    /// @param value Transaction ether value.\n    /// @param data Transaction data payload.\n    /// @return Returns transaction ID.\n    function submitTransaction(address destination, uint value, bytes data)\n        public\n        returns (uint transactionId)\n    {\n        transactionId = addTransaction(destination, value, data);\n        confirmTransaction(transactionId);\n    }\n\n    /// @dev Allows an owner to confirm a transaction.\n    /// @param transactionId Transaction ID.\n    function confirmTransaction(uint transactionId)\n        public\n        ownerExists(msg.sender)\n        transactionExists(transactionId)\n        notConfirmed(transactionId, msg.sender)\n    {\n        confirmations[transactionId][msg.sender] = true;\n        Confirmation(msg.sender, transactionId);\n        executeTransaction(transactionId);\n    }\n\n    /// @dev Allows an owner to revoke a confirmation for a transaction.\n    /// @param transactionId Transaction ID.\n    function revokeConfirmation(uint transactionId)\n        public\n        ownerExists(msg.sender)\n        confirmed(transactionId, msg.sender)\n        notExecuted(transactionId)\n    {\n        confirmations[transactionId][msg.sender] = false;\n        Revocation(msg.sender, transactionId);\n    }\n\n    /// @dev Allows anyone to execute a confirmed transaction.\n    /// @param transactionId Transaction ID.\n    function executeTransaction(uint transactionId)\n        public\n        ownerExists(msg.sender)\n        confirmed(transactionId, msg.sender)\n        notExecuted(transactionId)\n    {\n        if (isConfirmed(transactionId)) {\n            Transaction storage txn = transactions[transactionId];\n            txn.executed = true;\n            if (external_call(txn.destination, txn.value, txn.data.length, txn.data))\n                Execution(transactionId);\n            else {\n                ExecutionFailure(transactionId);\n                txn.executed = false;\n            }\n        }\n    }\n\n    // call has been separated into its own function in order to take advantage\n    // of the Solidity's code generator to produce a loop that copies tx.data into memory.\n    function external_call(address destination, uint value, uint dataLength, bytes data) private returns (bool) {\n        bool result;\n        assembly {\n            let x := mload(0x40)   // \"Allocate\" memory for output (0x40 is where \"free memory\" pointer is stored by convention)\n            let d := add(data, 32) // First 32 bytes are the padded length of data, so exclude that\n            result := call(\n                sub(gas, 34710),   // 34710 is the value that solidity is currently emitting\n                                   // It includes callGas (700) + callVeryLow (3, to pay for SUB) + callValueTransferGas (9000) +\n                                   // callNewAccountGas (25000, in case the destination address does not exist and needs creating)\n                destination,\n                value,\n                d,\n                dataLength,        // Size of the input (in bytes) - this is what fixes the padding problem\n                x,\n                0                  // Output is ignored, therefore the output size is zero\n            )\n        }\n        return result;\n    }\n\n    /// @dev Returns the confirmation status of a transaction.\n    /// @param transactionId Transaction ID.\n    /// @return Confirmation status.\n    function isConfirmed(uint transactionId)\n        public\n        constant\n        returns (bool)\n    {\n        uint count = 0;\n        for (uint i=0; i<owners.length; i++) {\n            if (confirmations[transactionId][owners[i]])\n                count += 1;\n            if (count == required)\n                return true;\n        }\n    }\n\n    /*\n     * Internal functions\n     */\n    /// @dev Adds a new transaction to the transaction mapping, if transaction does not exist yet.\n    /// @param destination Transaction target address.\n    /// @param value Transaction ether value.\n    /// @param data Transaction data payload.\n    /// @return Returns transaction ID.\n    function addTransaction(address destination, uint value, bytes data)\n        internal\n        notNull(destination)\n        returns (uint transactionId)\n    {\n        transactionId = transactionCount;\n        transactions[transactionId] = Transaction({\n            destination: destination,\n            value: value,\n            data: data,\n            executed: false\n        });\n        transactionCount += 1;\n        Submission(transactionId);\n    }\n\n    /*\n     * Web3 call functions\n     */\n    /// @dev Returns number of confirmations of a transaction.\n    /// @param transactionId Transaction ID.\n    /// @return Number of confirmations.\n    function getConfirmationCount(uint transactionId)\n        public\n        constant\n        returns (uint count)\n    {\n        for (uint i=0; i<owners.length; i++)\n            if (confirmations[transactionId][owners[i]])\n                count += 1;\n    }\n\n    /// @dev Returns total number of transactions after filers are applied.\n    /// @param pending Include pending transactions.\n    /// @param executed Include executed transactions.\n    /// @return Total number of transactions after filters are applied.\n    function getTransactionCount(bool pending, bool executed)\n        public\n        constant\n        returns (uint count)\n    {\n        for (uint i=0; i<transactionCount; i++)\n            if (   pending && !transactions[i].executed\n                || executed && transactions[i].executed)\n                count += 1;\n    }\n\n    /// @dev Returns list of owners.\n    /// @return List of owner addresses.\n    function getOwners()\n        public\n        constant\n        returns (address[])\n    {\n        return owners;\n    }\n\n    /// @dev Returns array with owner addresses, which confirmed transaction.\n    /// @param transactionId Transaction ID.\n    /// @return Returns array of owner addresses.\n    function getConfirmations(uint transactionId)\n        public\n        constant\n        returns (address[] _confirmations)\n    {\n        address[] memory confirmationsTemp = new address[](owners.length);\n        uint count = 0;\n        uint i;\n        for (i=0; i<owners.length; i++)\n            if (confirmations[transactionId][owners[i]]) {\n                confirmationsTemp[count] = owners[i];\n                count += 1;\n            }\n        _confirmations = new address[](count);\n        for (i=0; i<count; i++)\n            _confirmations[i] = confirmationsTemp[i];\n    }\n\n    /// @dev Returns list of transaction IDs in defined range.\n    /// @param from Index start position of transaction array.\n    /// @param to Index end position of transaction array.\n    /// @param pending Include pending transactions.\n    /// @param executed Include executed transactions.\n    /// @return Returns array of transaction IDs.\n    function getTransactionIds(uint from, uint to, bool pending, bool executed)\n        public\n        constant\n        returns (uint[] _transactionIds)\n    {\n        uint[] memory transactionIdsTemp = new uint[](transactionCount);\n        uint count = 0;\n        uint i;\n        for (i=0; i<transactionCount; i++)\n            if (   pending && !transactions[i].executed\n                || executed && transactions[i].executed)\n            {\n                transactionIdsTemp[count] = i;\n                count += 1;\n            }\n        _transactionIds = new uint[](to - from);\n        for (i=from; i<to; i++)\n            _transactionIds[i - from] = transactionIdsTemp[i];\n    }\n}\n",
  "sourcePath": "/home/aery/blockchain/advanced_contracts/multisig/contracts/MultiSigWallet.sol",
  "compiler": {
    "name": "solc",
    "version": "0.4.15+commit.bbb8e64f.Emscripten.clang"
  },
  "schemaVersion": "3.0.1",
  "updatedAt": "2019-03-21T01:32:50.321Z",
  "devdoc": {
    "author": "Stefan George - <stefan.george@consensys.net>",
    "methods": {
      "addOwner(address)": {
        "details": "Allows to add a new owner. Transaction has to be sent by wallet.",
        "params": {
          "owner": "Address of new owner."
        }
      },
      "changeRequirement(uint256)": {
        "details": "Allows to change the number of required confirmations. Transaction has to be sent by wallet.",
        "params": {
          "_required": "Number of required confirmations."
        }
      },
      "confirmTransaction(uint256)": {
        "details": "Allows an owner to confirm a transaction.",
        "params": {
          "transactionId": "Transaction ID."
        }
      },
      "executeTransaction(uint256)": {
        "details": "Allows anyone to execute a confirmed transaction.",
        "params": {
          "transactionId": "Transaction ID."
        }
      },
      "getConfirmationCount(uint256)": {
        "details": "Returns number of confirmations of a transaction.",
        "params": {
          "transactionId": "Transaction ID."
        },
        "return": "Number of confirmations."
      },
      "getConfirmations(uint256)": {
        "details": "Returns array with owner addresses, which confirmed transaction.",
        "params": {
          "transactionId": "Transaction ID."
        },
        "return": "Returns array of owner addresses."
      },
      "getOwners()": {
        "details": "Returns list of owners.",
        "return": "List of owner addresses."
      },
      "getTransactionCount(bool,bool)": {
        "details": "Returns total number of transactions after filers are applied.",
        "params": {
          "executed": "Include executed transactions.",
          "pending": "Include pending transactions."
        },
        "return": "Total number of transactions after filters are applied."
      },
      "getTransactionIds(uint256,uint256,bool,bool)": {
        "details": "Returns list of transaction IDs in defined range.",
        "params": {
          "executed": "Include executed transactions.",
          "from": "Index start position of transaction array.",
          "pending": "Include pending transactions.",
          "to": "Index end position of transaction array."
        },
        "return": "Returns array of transaction IDs."
      },
      "isConfirmed(uint256)": {
        "details": "Returns the confirmation status of a transaction.",
        "params": {
          "transactionId": "Transaction ID."
        },
        "return": "Confirmation status."
      },
      "removeOwner(address)": {
        "details": "Allows to remove an owner. Transaction has to be sent by wallet.",
        "params": {
          "owner": "Address of owner."
        }
      },
      "replaceOwner(address,address)": {
        "details": "Allows to replace an owner with a new owner. Transaction has to be sent by wallet.",
        "params": {
          "newOwner": "Address of new owner.",
          "owner": "Address of owner to be replaced."
        }
      },
      "revokeConfirmation(uint256)": {
        "details": "Allows an owner to revoke a confirmation for a transaction.",
        "params": {
          "transactionId": "Transaction ID."
        }
      },
      "submitTransaction(address,uint256,bytes)": {
        "details": "Allows an owner to submit and confirm a transaction.",
        "params": {
          "data": "Transaction data payload.",
          "destination": "Transaction target address.",
          "value": "Transaction ether value."
        },
        "return": "Returns transaction ID."
      }
    },
    "title": "Multisignature wallet - Allows multiple parties to agree on transactions before execution."
  },
  "userdoc": {
    "methods": {}
  }
}